<?xml version="1.0"?><FileMessage><Header><Sender>IJARAH</Sender><FileType>SADADBillerUploadMSG</FileType><FileID>IJR0000002858</FileID></Header><Body>H1000000002858 180320 180320
D100201171000331KHALAF ALZAFER                          ACTIVE  0000000003110242018-02-252018-02-252021-03-252021-03-25000000006569396000000000006000000000000155500
D100201180100790KHALD ALSHDHAN                          ACTIVE  0000000000000002018-03-192018-03-192021-08-012021-08-01000000008085910000000000006000000000000000000
D100201170400759KHALED ABDELHADY                        ACTIVE  0000000000000002018-03-192018-03-192022-11-012022-11-01000000006313992000000000006000000000000000000
D100201161200105KHALED ALOQAILY                         ACTIVE  0000000004550282018-02-272018-02-272020-06-272020-06-27000000020981582000000000006000000000000455000
D100201171100467KHALED BADAWI                           ACTIVE  0000000000000002018-03-192018-03-192023-06-012023-06-01000000009803465000000000006000000000000000000
D100201160900432KHALED ELDIHY                           ACTIVE  0000000000000002018-03-192018-03-192022-04-012022-04-01000000007025522000000000006000000000000000000
D100201170501129KHALID ABULABAN                         ACTIVE  0000000001941142018-03-012018-03-012020-12-012020-12-01000000006914053000000000006000000000000194100
D100201160600264KHALID ALABDULLAH                       ACTIVE  0000000000000002018-03-192018-03-192019-04-272019-04-27000000001820816000000000006000000000000000000
D100201170900065KHALID ALAHMARI                         ACTIVE  0000000000000002018-03-192018-03-192023-03-272023-03-27000000009199340000000000006000000000000000000
D100201171100245KHALID ALANAZI                          ACTIVE  0000000001620862018-02-272018-02-272023-05-272023-05-27000000011921720000000000006000000000000162000
D100201170600130KHALID ALBAQAMI                         ACTIVE  0000000000000002018-03-192018-03-192022-11-272022-11-27000000007682772000000000006000000000000000000
D100201131100282KHALID ALHARABI                         ACTIVE  0000000000000002018-03-192018-03-192018-05-152018-05-15000000000000000000000000006000000000000000000
D100201170700368KHALID ALHARBI                          ACTIVE  0000000000000002018-03-192018-03-192023-01-272023-01-27000000008088032000000000006000000000000000000
D100201171100761KHALID ALHARBI                          ACTIVE  0000000000000002018-03-192018-03-192023-06-252023-06-25000000014016439000000000006000000000000000000
D100201151200542KHALID ALHUTHAILI                       ACTIVE  0000000000000002018-03-192018-03-192021-08-012021-08-01000000005174469000000000006000000000000000000
D100201170300210ALSAEED HAMZAH                          ACTIVE  0000000000000002018-03-192018-03-192020-09-282020-09-28000000006013337000000000006000000000000000000
D100201171100329ALjowhara ALEINAZY                      ACTIVE  0000000000000002018-03-192018-03-192023-05-272023-05-27000000011817288000000000006000000000000000000
D100201160300019NASSER ALQAHTANI                        ACTIVE  0000000001551182018-02-272018-02-272021-08-272021-08-27000000007271382000000000006000000000000155100
D100201150300290NAWAB ALI KHAN                          ACTIVE  0000000018219202018-03-012018-03-012019-10-012019-10-01000000006795355000000000006000000000000219400
D100201161201057NAWAF ALANAZI                           ACTIVE  0000000000000002018-03-192018-03-192022-06-272022-06-27000000007538534000000000006000000000000000000
D100201161000130NAWAF ALANAZI                           ACTIVE  0000000012648922018-02-252018-02-252022-04-252022-04-25000000017576924000000000006000000000000252700
D100201170800118NAWAF ALSHAIKH                          ACTIVE  0000000000000002018-03-192018-03-192023-01-272023-01-27000000008874434000000000006000000000000000000
D100201161001124NAWAF ALSUBAIE                          ACTIVE  0000000000000002018-03-192018-03-192022-04-252022-04-25000000007359090000000000006000000000000000000
D100201170600408NAWAF BIN ANBAR                         ACTIVE  0000000001385252018-02-252018-02-252022-12-252022-12-25000000008688705000000000006000000000000138400
D100203171000070NELSIN ONG                              ACTIVE  0000000000000002018-03-192018-03-192023-04-202023-04-20000000007143237000000000006000000000000000000
D100201180100534ARIEL FETALVO                           ACTIVE  0000000000000002018-03-192018-03-192023-07-252023-07-25000000008978746000000000006000000000000000000
D100201161000402ASHERF MOUSTFA                          ACTIVE  0000000000000002018-03-192018-03-192022-04-252022-04-25000000012498543000000000006000000000000000000
D100201170300066ASSAF ALRUQI                            ACTIVE  0000000000000002018-03-192018-03-192022-08-272022-08-27000000007562704000000000006000000000000000000
D100201151100446ATIAH ALMALKI                           ACTIVE  0000000000000002018-02-252018-02-252021-05-252021-05-25000000005335360000000000006000000000000000000
D100201161000799ATIKA ABBAS                             ACTIVE  0000000000000002018-03-192018-03-192022-04-252022-04-25000000006035880000000000006000000000000000000
D100201160801157AWAD ALANAZI                            ACTIVE  0000000002307402018-02-272018-02-272022-02-272022-02-27000000013074220000000000006000000000000230700
D100201161101255AWAD ALDOSSARI                          ACTIVE  0000000000000002018-03-192018-03-192022-06-012022-06-01000000005884395000000000006000000000000000000
D100201150100323AWS ELSRRAG                             ACTIVE  0000000000000002018-03-192018-03-192019-09-012019-09-01000000003361308000000000006000000000000000000
D100201171000186AYAD ALMUTAIRI                          ACTIVE  0000000000000002018-03-192018-03-192023-05-282023-05-28000000007434589000000000006000000000000000000
D100201161000360AYED ALGHAMDY                           ACTIVE  0000000000000002018-03-192018-03-192022-04-252022-04-25000000006359235000000000006000000000000000000
D100201151000194AYEDH ALKAHTANI                         ACTIVE  0000000013511292018-02-272018-02-272021-04-272021-04-27000000006108793000000000006000000000000122800
D100201160900466AYIDH ALDAWSARI                         ACTIVE  0000000000000002018-03-192018-03-192022-03-252022-03-25000000011065709000000000006000000000000000000
D100201150900349AYIDH ALQAHTANI                         ACTIVE  0000000000000002018-03-192018-03-192021-03-272021-03-27000000007797659000000000006000000000000000000
D100201170700506AYMAN ALASIRI                           ACTIVE  0000000000000002018-03-192018-03-192023-01-272023-01-27000000010333645000000000006000000000000000000
D100201170100952AYMAN HUSSEIN                           ACTIVE  0000000000000002018-03-192018-03-192022-09-012022-09-01000000008536299000000000006000000000000000000
D100201150600464AYMAN OQAILLAN                          ACTIVE  0000000000000002018-03-192018-03-192020-01-012020-01-01000000003903985000000000006000000000000000000
D100201170200124AZZAH ELGHARBAWY                        ACTIVE  0000000000000002018-03-192018-03-192022-08-012022-08-01000000008581324000000000006000000000000000000
D100201180100342Ahlam Aqili                             ACTIVE  0000000000000002018-03-192018-03-192023-07-272023-07-27000000007345270000000000006000000000000000000
D100201171100209ADEL ALANZAN                            ACTIVE  0000000001391202018-02-272018-02-272023-05-272023-05-27000000012540040000000000006000000000000139100
D100201170300831ADEL ALHARBI                            ACTIVE  0000000000000002018-03-192018-03-192022-09-272022-09-27000000006507828000000000006000000000000000000
D100201180100036ADEL ALMUTAIRI                          ACTIVE  0000000020584442018-03-012018-03-012023-07-012023-07-01000000006029948000000000006000000000000081900
D100201150400089ADEL BIN RASHED                         ACTIVE  0000000000651802018-02-272018-02-272020-09-272020-09-27000000012985930000000000006000000000000065100
D100201171000063ADNAN AYOUB                             ACTIVE  0000000000000002018-03-192018-03-192023-03-272023-03-27000000005296455000000000006000000000000000000
D100201170600947AEDH ALMUTAIRI                          ACTIVE  0000000000000002018-03-192018-03-192022-12-272022-12-27000000010064184000000000006000000000000000000
D100201171200748AEDH ALSHAHRANI                         ACTIVE  0000000000000002018-03-192018-03-192023-06-262023-06-26000000010374800000000000006000000000000000000
D100201170300889AGUSTO CORPUZ                           ACTIVE  0000000000000002018-03-192018-03-192022-10-012022-10-01000000008674338000000000006000000000000000000
D100201180200634AHMAD ALANAZI                           ACTIVE  0000000000000002018-03-192018-03-192023-08-272023-08-27000000017357324000000000006000000000000000000
D100201171000385AHMAD ALMADANI                          ACTIVE  0000000000000002018-03-192018-03-192023-04-252023-04-25000000007054722000000000006000000000000000000
D100201170800206AHMED ABDELHAMID                        ACTIVE  0000000000000002018-03-192018-03-192023-02-252023-02-25000000007542522000000000006000000000000000000
D100201160600097AHMED ABOUELATTA                        ACTIVE  0000000000000002018-03-192018-03-192021-11-272021-11-27000000006684718000000000006000000000000000000
D100201160700365AHMED ALANAZI                           ACTIVE  0000000001400032018-02-272018-02-272022-01-272022-01-27000000008019674000000000006000000000000140000
D100201161101029AHMED ALASMARI                          ACTIVE  0000000003179602018-02-272018-02-272022-05-272022-05-27000000009647060000000000006000000000000158900
D100201171200527AHMED ALBALLASI                         ACTIVE  0000000000000002018-03-192018-03-192020-07-012020-07-01000000005238834000000000006000000000000000000
D100201150400176AHMED ALGHAMDI                          ACTIVE  0000000000000002018-03-192018-03-192020-09-272020-09-27000000003061075000000000006000000000000000000
D100201170800454AHMED ALHARBI                           ACTIVE  0000000000000002018-03-192018-03-192022-02-272022-02-27000000008315988000000000006000000000000000000
D100203171200181AHMED ALJAWABIRAH                       ACTIVE  0000000000000002018-03-192018-03-192020-11-202020-11-20000000005012429000000000006000000000000000000
D100201150700241AHMED ALMALKI                           ACTIVE  0000000009253122018-03-012018-03-012021-02-012021-02-01000000008207815000000000006000000000000184700
D100201160800075AHMED ALMUTAWALLI                       ACTIVE  0000000000000002018-03-192018-03-192022-02-012022-02-01000000006371888000000000006000000000000000000
D100201170100012ABDULLAH ALSHEHRI                       ACTIVE  0000000000856172018-02-272018-02-272022-06-272022-06-27000000004023999000000000006000000000000085600
D100201151200613ABDULLAH ALSLEEM                        ACTIVE  0000000002490162017-12-132017-12-132018-06-132018-06-13000000001998148000000000006000000000000249000
D100201150300086ABDULLAH BIN ZUNQUR                     ACTIVE  0000000000979302018-02-272018-02-272020-08-272020-08-27000000003230590000000000006000000000000097900
D100201151100550ABDULLAH BINHUWAIMEL                    ACTIVE  0000000000000002018-03-192018-03-192019-05-282019-05-28000000006039204000000000006000000000000000000
D100201161200035ABDULLAH HAZAZI                         ACTIVE  0000000003545642018-02-272018-02-272022-05-272022-05-27000000008111859000000000006000000000000118100
D100201171100553ABDULMAJEED ALMUTAIRI                   ACTIVE  0000000000000002018-03-192018-03-192023-05-272023-05-27000000026047542000000000006000000000000000000
D100203170700118ABDULMAJEED ALSHAMMARI                  ACTIVE  0000000000000002018-03-192018-03-192023-01-272023-01-27000000010325379000000000006000000000000000000
D100203180200302ABDULMAJEED KUSY                        ACTIVE  0000000000000002018-03-192018-03-192023-08-272023-08-27000000008277250000000000006000000000000000000
D100201170700065ABDULMAJID ALSHURAIM                    ACTIVE  0000000000000002018-03-192018-03-192022-12-282022-12-28000000010658336000000000006000000000000000000
D100203171200176ABDULMOHAYMEN ALDOKHI                   ACTIVE  0000000000000002018-03-192018-03-192022-07-012022-07-01000000007649574000000000006000000000000000000
D100201141100235ABDULMOHSEN ALHADIAN                    ACTIVE  0000000000000002018-03-192018-03-192019-07-012019-07-01000000002577668000000000006000000000000000000
D100201170900124ABDULMONEM AMER                         ACTIVE  0000000000000002018-03-192018-03-192019-09-012019-09-01000000003132469000000000006000000000000000000
D100201171100040ABDULRAHMAN AL SUTARI                   ACTIVE  0000000000000002018-03-192018-03-192020-05-012020-05-01000000003863961000000000006000000000000000000
D100201170300513FADHEL ALANAZI                          ACTIVE  0000000000000002018-03-192018-03-192022-09-282022-09-28000000011673544000000000006000000000000000000
D100201141200026FAHAD ALBAIZ                            ACTIVE  0000000014998682018-03-012018-03-012019-07-012019-07-01000000003999648000000000006000000000000249900
D100203171200139FAHAD ALBESHI                           ACTIVE  0000000000000002018-03-192018-03-192023-07-272023-07-27000000017140377000000000006000000000000000000
D100201161200052FAHAD ALDAWSARI                         ACTIVE  0000000001772682018-02-272018-02-272022-06-272022-06-27000000010681596000000000006000000000000177200
D100201150400373FAHAD ALISSA                            ACTIVE  0000000000439282018-02-272018-02-272020-09-272020-09-27000000005673728000000000006000000000000043900
D100201161201102FAHAD ALMALKY                           ACTIVE  0000000000000002018-03-192018-03-192019-06-272019-06-27000000006534640000000000006000000000000000000
D100201170400946FAHAD ALMARSHED                         ACTIVE  0000000000000002018-03-192018-03-192022-10-252022-10-25000000008571691000000000006000000000000000000
D100201170900547FAHAD ALMAS                             ACTIVE  0000000002139702018-02-272018-02-272023-03-272023-03-27000000007308145000000000006000000000000106900
D100201160800106FAHAD ALMATRAFI                         ACTIVE  0000000001485002018-02-272018-02-272020-01-272020-01-27000000003963000000000000006000000000000148500
D100201161200743FAHAD ALOTAIBI                          ACTIVE  0000000000000002018-03-192018-03-192022-06-272022-06-27000000006706430000000000006000000000000000000
D100201170700182FAHAD ALOTAIBI                          ACTIVE  0000000000000002018-03-192018-03-192022-12-272022-12-27000000009071192000000000006000000000000000000
D100201160200179FAHAD ALOWAYWID                         ACTIVE  0000000000000002018-03-192018-03-192021-08-272021-08-27000000016573880000000000006000000000000000000
D100201170100103FAHAD ALQAHTANI                         ACTIVE  0000000000000002018-03-192018-03-192020-08-012020-08-01000000003037972000000000006000000000000000000
D100201161101252FAHAD ALRASHOUDY                        ACTIVE  0000000000000002018-03-192018-03-192022-05-252022-05-25000000014954045000000000006000000000000000000
D100201150600661FAHAD ALRUBAYYI                         ACTIVE  0000000000000002018-03-192018-03-192020-12-252020-12-25000000004832924000000000006000000000000000000
D100201160100372FAHAD ALSAEGH                           ACTIVE  0000000001823032018-02-272018-02-272021-07-272021-07-27000000008579908000000000006000000000000182300
D100201170500557FAHAD ALSHAHEEN                         ACTIVE  0000000000000002018-03-192018-03-192021-08-252021-08-25000000008622548000000000006000000000000000000
D100201161101135FAHAD ALSHEMAIMRI                       ACTIVE  0000000000769162018-02-252018-02-252022-05-252022-05-25000000004318136000000000006000000000000076900
D100201161000826FAHAD ALSUBAIE                          ACTIVE  0000000011516262018-02-252018-02-252020-09-252020-09-25000000006604571000000000006000000000000164500
D100201160400084FAHAD ALTURKI                           ACTIVE  0000000000000002018-03-192018-03-192019-09-272019-09-27000000003435367000000000006000000000000000000
D100201170900075FAHAD ALZAAQI                           ACTIVE  0000000000000002018-03-192018-03-192023-03-272023-03-27000000012927095000000000006000000000000000000
D100201150900351FAHAD ALZAIBER                          ACTIVE  0000000000000002018-03-192018-03-192021-04-252021-04-25000000006122688000000000006000000000000000000
D100201170800170FAHAD BIN BAKRAN                        ACTIVE  0000000000000002018-03-192018-03-192023-02-252023-02-25000000015052118000000000006000000000000000000
D100201160100102FAHAD BIN HAMMAD                        ACTIVE  0000000000000002018-03-192018-03-192021-07-272021-07-27000000006196295000000000006000000000000000000
D100201170300812FAHAD BIN JIRJIR                        ACTIVE  0000000001641902018-02-272018-02-272022-09-272022-09-27000000009843500000000000006000000000000164100
D100201170400934FAIHAN ALHARBI                          ACTIVE  0000000000000002018-03-192018-03-192022-10-272022-10-27000000007744850000000000006000000000000000000
D100201161101049FAIHAN ALMUTAIRI                        ACTIVE  0000000000320742018-02-272018-02-272022-06-272022-06-27000000007963776000000000006000000000000032000
D100201140700122FAIHAN ALOTAIBI                         ACTIVE  0000000000000002018-03-192018-03-192020-01-272020-01-27000000008008685000000000006000000000000000000
D100201151000494FAISAL ALAKLABI                         ACTIVE  0000000029313362018-02-272018-02-272021-04-272021-04-27000000013611112000000000006000000000000244300
D100201130600041FAISAL ALBGUMIY                         ACTIVE  0000000035820922017-07-012017-07-012018-01-012018-01-01000000003582092000000000006000000000000188500
D100201150300100FAISAL ALDOSARI                         ACTIVE  0000000000000002018-03-192018-03-192020-09-272020-09-27000000005894250000000000006000000000000000000
D100201151000073FAISAL ALFQEER                          ACTIVE  0000000000000002018-03-192018-03-192021-04-012021-04-01000000011854646000000000006000000000000000000
D100201170400001FAISAL ALKAHTANI                        ACTIVE  0000000000000002018-03-192018-03-192022-09-252022-09-25000000023139306000000000006000000000000000000
D100201170900488FAISAL ALMANIA                          ACTIVE  0000000000000002018-03-192018-03-192021-03-272021-03-27000000016258308000000000006000000000000000000
D100201170900412FAISAL ALSANEA                          ACTIVE  0000000000000002018-03-192018-03-192023-03-252023-03-25000000007301460000000000006000000000000000000
D100201180100332FAISAL ALSUHAYMI                        ACTIVE  0000000000000002018-03-192018-03-192023-07-272023-07-27000000007890368000000000006000000000000000000
D100201171200163FAISAL EL SAFADY                        ACTIVE  0000000000000002018-03-192018-03-192023-07-012023-07-01000000007061844000000000006000000000000000000
D100201151100435FALEH ALHARBI                           ACTIVE  0000000000000002018-03-192018-03-192021-05-272021-05-27000000008848255000000000006000000000000000000
D100201170800065FARIS ALQAHTANI                         ACTIVE  0000000000000002018-03-192018-03-192023-02-272023-02-27000000013354206000000000006000000000000000000
D100201170300693FARRAJ ALTURKI                          ACTIVE  0000000000000002018-03-192018-03-192022-10-012022-10-01000000008224115000000000006000000000000000000
D100201150900307FAWAZ ALFOAZ                            ACTIVE  0000000003403342018-02-272018-02-272021-03-272021-03-27000000007360161000000000006000000000000170300
D100201160900092FAWAZ ALQAHTANI                         ACTIVE  0000000000000002018-03-192018-03-192022-03-272022-03-27000000006029960000000000006000000000000000000
D100201151000068FAYEZ ALAHMARI                          ACTIVE  0000000003642382018-02-252018-02-252021-04-252021-04-25000000008338046000000000006000000000000182100
D100203170600192FAYEZ ALBISHI                           ACTIVE  0000000000000002018-03-192018-03-192022-12-272022-12-27000000011990028000000000006000000000000000000
D100201170200593FAYEZ ALMUTAIRI                         ACTIVE  0000000000000002018-03-192018-03-192022-08-272022-08-27000000007447984000000000006000000000000000000
D100201150500207GHADAH ALMAZYAD                         ACTIVE  0000000004168852018-03-012018-03-012021-01-012021-01-01000000008893284000000000006000000000000203300
D100201160800111GHALIB ALSUBAIE                         ACTIVE  0000000020197102018-02-272018-02-272022-01-272022-01-27000000014220520000000000006000000000000224400
D100201170600290GHAZI ALOTAIBI                          ACTIVE  0000000000000002018-03-192018-03-192022-12-012022-12-01000000012808853000000000006000000000000000000
D100201160900550GHAZI ALOTAIBI                          ACTIVE  0000000000000002018-03-192018-03-192021-03-252021-03-25000000005107436000000000006000000000000000000
D100201170800438GOMAA SHABAN                            ACTIVE  0000000000000002018-03-192018-03-192021-02-252021-02-25000000006775185000000000006000000000000000000
D100201150600282NOOR QURESHI                            ACTIVE  0000000000000002018-03-192018-03-192021-01-012021-01-01000000008885437000000000006000000000000000000
D100201170200670NORAH ALZUBAIRI                         ACTIVE  0000000000000002018-03-192018-03-192022-08-272022-08-27000000008625480000000000006000000000000000000
D100201180200375NOUF ALYAHYAN                           ACTIVE  0000000000000002018-03-192018-03-192023-08-272023-08-27000000009587120000000000006000000000000000000
D100201150600379NURULALAM ABDULGAFUR                    ACTIVE  0000000000973082018-03-012018-03-012021-01-012021-01-01000000008816420000000000006000000000000097300
D100201140900059Nadeyah Alotaibi                        ACTIVE  0000000000000002018-03-192018-03-192020-02-272020-02-27000000006058312000000000006000000000000000000
D100201170500693OLA ALSHALABI                           ACTIVE  0000000001205672018-03-012018-03-012022-12-012022-12-01000000008339061000000000006000000000000120500
D100201150100238OLAYAN ALAMRI                           ACTIVE  0000000000000002018-03-192018-03-192020-07-272020-07-27000000012862752000000000006000000000000000000
D100201140500030OMAR ALDAWSARI                          ACTIVE  0000000000000002018-03-192018-03-192019-10-272019-10-27000000003387418000000000006000000000000000000
D100201160900394OMAR ALJASSER                           ACTIVE  0000000000000002018-03-192018-03-192022-04-012022-04-01000000005716654000000000006000000000000000000
D100201170100543OMAR BAWAZIR                            ACTIVE  0000000005448702018-03-102018-03-102022-08-102022-08-10000000011403344000000000006000000000000189300
D100201161100060OMAR EISSA                              ACTIVE  0000000000000002018-03-192018-03-192022-06-012022-06-01000000005144262000000000006000000000000000000
D100201161100360OMAR MAHMOUD ESMAIL                     ACTIVE  0000000000000002018-03-192018-03-192020-06-012020-06-01000000004428288000000000006000000000000000000
D100201151200267OMAR OZAYBI                             ACTIVE  0000000017626552018-02-272018-02-272021-05-272021-05-27000000008630740000000000006000000000000160200
D100201170400251OMAR TABBAKH                            ACTIVE  0000000000000002018-03-192018-03-192022-10-012022-10-01000000009629322000000000006000000000000000000
D100201180100795OMER ALI                                ACTIVE  0000000000000002018-03-192018-03-192023-08-012023-08-01000000012513394000000000006000000000000000000
D100201151100039ORAYF A                                 ACTIVE  0000000003298662018-03-012018-03-012019-11-012019-11-01000000008109784000000000006000000000000329800
D100201160700502OSAMA FARAG                             ACTIVE  0000000000000002018-03-192018-03-192022-02-012022-02-01000000006912043000000000006000000000000000000
D100201170500312OSAMA KHADER                            ACTIVE  0000000000000002018-03-192018-03-192020-11-012020-11-01000000003498596000000000006000000000000000000
D100201171100006OSAMA SOLIMAN                           ACTIVE  0000000000000002018-03-192018-03-192021-05-012021-05-01000000005184670000000000006000000000000000000
D100201170500207OTHMAN ALORAINI                         ACTIVE  0000000004973162018-02-252018-02-252022-11-252022-11-25000000008788080000000000006000000000000124300
D100201170500286FAHAD BIN SHARFAN                       ACTIVE  0000000005117152018-02-252018-02-252019-10-252019-10-25000000003685725000000000006000000000000226700
D100201140300032FAHAD RDWAN                             ACTIVE  0000000003500002018-02-272018-02-272018-08-272018-08-27000000001233137000000000006000000000000350000
D100201171000862FAHD ALDULAIMI                          ACTIVE  0000000000000002018-03-192018-03-192023-04-252023-04-25000000010515097000000000006000000000000000000
D100201150600170FAHD ALMOHAMED                          ACTIVE  0000000000000002018-03-192018-03-192020-12-252020-12-25000000010554320000000000006000000000000000000
D100201150600376ALBANDRI ALOTAIBI                       ACTIVE  0000000003103292018-02-272018-02-272020-12-272020-12-27000000010774541000000000006000000000000310300
D100201171100797MOHAMMED A                              ACTIVE  0000000000000002018-03-192018-03-192023-06-012023-06-01000000021941936000000000006000000000000000000
D100201150800501MOHAMMED AL ASMARY                      ACTIVE  0000000001552222018-02-252018-02-252021-01-252021-01-25000000006185268000000000006000000000000155100
D100203171000037MOHAMMED AL RAMADHAN                    ACTIVE  0000000000000002018-03-192018-03-192023-04-012023-04-01000000010913576000000000006000000000000000000
D100201171100241MOHAMMED AL WADEY                       ACTIVE  0000000000000002018-03-192018-03-192023-05-272023-05-27000000007100411000000000006000000000000000000
D100201171000590MOHAMMED ALABDULWAHAB                   ACTIVE  0000000000000002018-03-192018-03-192023-04-252023-04-25000000006497160000000000006000000000000000000
D100201160200417MOHAMMED ALAJMI                         ACTIVE  0000000001399222018-02-252018-02-252021-08-252021-08-25000000006558518000000000006000000000000139900
D100201170100850MOHAMMED ALARJANI                       ACTIVE  0000000010615142018-02-252018-02-252022-06-252022-06-25000000007737030000000000006000000000000117900
D100201170200784MOHAMMED ALASIRI                        ACTIVE  0000000000000002018-03-192018-03-192019-08-252019-08-25000000003253624000000000006000000000000000000
D100201171200383MOHAMMED ALDOSARI                       ACTIVE  0000000002857042018-02-242018-02-242021-06-262021-06-26000000014019646000000000006000000000000285700
D100201160200344MOHAMMED ALFAYADH                       ACTIVE  0000000000000002018-03-192018-03-192021-08-272021-08-27000000008455048000000000006000000000000000000
D100201170600149MOHAMMED ALGHAMDI                       ACTIVE  0000000015780322018-02-272018-02-272022-11-272022-11-27000000013951880000000000006000000000000186400
D100201160100218SAAD AL LEHAIM                          ACTIVE  0000000000000002018-03-192018-03-192021-06-252021-06-25000000010932178000000000006000000000000000000
D100201170600466SAAD ALDAMANI                           ACTIVE  0000000000000002018-03-192018-03-192022-12-272022-12-27000000011968424000000000006000000000000000000
D100201170400348SAAD ALDAWSARI                          ACTIVE  0000000000000002018-03-192018-03-192022-10-272022-10-27000000009417600000000000006000000000000000000
D100201160900403SAAD ALDOSSARY                          ACTIVE  0000000005988442018-02-252018-02-252022-04-252022-04-25000000017565545000000000006000000000000299500
D100201151200399SAAD ALESSA                             ACTIVE  0000000002008132018-02-272018-02-272021-07-272021-07-27000000009209268000000000006000000000000200800
D100201160800274SAAD ALKAHDER                           ACTIVE  0000000000000002018-03-192018-03-192022-01-252022-01-25000000007855493000000000006000000000000000000
D100201160800264SAAD ALQAHTANI                          ACTIVE  0000000000000002018-03-192018-03-192020-01-272020-01-27000000003491213000000000006000000000000000000
D100201150600400SAAD ALSHARID                           ACTIVE  0000000001078842018-02-252018-02-252020-12-252020-12-25000000003593636000000000006000000000000107800
D100201161100444SAAD ALTAMRAH                           ACTIVE  0000000000000002018-03-192018-03-192022-05-252022-05-25000000009711330000000000006000000000000000000
D100201170100862SAAD ALTURKI                            ACTIVE  0000000000000002018-03-192018-03-192022-08-012022-08-01000000013100722000000000006000000000000000000
D100201180100046SAAD BINDRAIHEM                         ACTIVE  0000000000000002018-03-192018-03-192023-07-272023-07-27000000018703274000000000006000000000000000000
D100201171000797SAAD HASSANEIN                          ACTIVE  0000000000000002018-03-192018-03-192021-05-012021-05-01000000003960784000000000006000000000000000000
D100201171000751SAEED ALDAWSARI                         ACTIVE  0000000000000002018-03-192018-03-192023-04-272023-04-27000000011843088000000000006000000000000000000
D100201160900549SAEED ALDOSARI                          ACTIVE  0000000000367502018-03-192018-03-192022-04-012022-04-01000000009226715000000000006000000000000036700
D100201150700391SAEED ALGHAMDI                          ACTIVE  0000000005982802018-02-272018-02-272021-01-272021-01-27000000006265810000000000006000000000000149500
D100203180200025SAEED ALGHAMDI                          ACTIVE  0000000008943902018-03-182018-03-182023-06-252023-06-25000000005571412000000000006000000000000082100
D100201160400207SAEED ALQAHTANI                         ACTIVE  0000000000000002018-03-192018-03-192020-09-252020-09-25000000006144175000000000006000000000000000000
D100201160900502SAMEH KHALEFA                           ACTIVE  0000000001053742018-03-102018-03-102022-04-102022-04-10000000006411466000000000006000000000000105300
D100201170200790SAMI ALANAZI                            ACTIVE  0000000002816582018-02-272018-02-272022-08-272022-08-27000000018481242000000000006000000000000281600
D100201171000042SAMI ALOTAIBI                           ACTIVE  0000000001251802018-02-272018-02-272023-03-272023-03-27000000008758905000000000006000000000000125100
D100203170500197SAMI KHAN                               ACTIVE  0000000000000002018-03-192018-03-192022-11-282022-11-28000000020973622000000000006000000000000000000
D100201170501232SAMI KHARIB                             ACTIVE  0000000001463502018-02-272018-02-272022-11-272022-11-27000000009864025000000000006000000000000146300
D100201171100689SAQAR ALDEGHAITHER                      ACTIVE  0000000000000002018-03-192018-03-192022-07-012022-07-01000000004603450000000000006000000000000000000
D100201151000111SARAH ALMOHAMMED                        ACTIVE  0000000000304852018-02-272018-02-272021-03-272021-03-27000000007928830000000000006000000000000030400
D100201161100777SARAH SHUWAYRIKH                        ACTIVE  0000000002832002018-02-252018-02-252022-04-252022-04-25000000017499000000000000006000000000000283200
D100201150200532SATTAM ALOTAIBI                         ACTIVE  0000000003419722018-02-272018-02-272020-09-272020-09-27000000005706797000000000006000000000000180100
D100201160200059SAUD ALGHAMDI                           ACTIVE  0000000000000002018-03-192018-03-192021-07-272021-07-27000000006352360000000000006000000000000000000
D100201170500398SAUD ALMUTAIRI                          ACTIVE  0000000001085652018-02-272018-02-272022-11-272022-11-27000000007285888000000000006000000000000108500
D100201160600694SAUD ALMUTAIRI                          ACTIVE  0000000000000002018-03-192018-03-192021-12-272021-12-27000000009830780000000000006000000000000000000
D100201150600145SAUD ALOTAIBI                           ACTIVE  0000000003418742018-02-272018-02-272020-12-272020-12-27000000006648110000000000006000000000000170900
D100201150400410SAUD ALOTAIBI                           ACTIVE  0000000000000002018-03-192018-03-192020-10-272020-10-27000000008981124000000000006000000000000000000
D100201170200634SAUD ALOTAIBI                           ACTIVE  0000000001252332018-02-272018-02-272022-08-272022-08-27000000007406417000000000006000000000000125200
D100201161000123SAUD ALOTAIBI                           ACTIVE  0000000000000002018-03-192018-03-192022-04-252022-04-25000000007280986000000000006000000000000000000
D100201161000390SAUD ALOTAIBI                           ACTIVE  0000000007247112018-02-252018-02-252022-04-252022-04-25000000044115496000000000006000000000000724700
D100201171100201SAUD ALSUBAIE                           ACTIVE  0000000002400382018-02-272018-02-272023-05-272023-05-27000000017610704000000000006000000000000240000
D100201170600621MANSOUR ALOTAIBI                        ACTIVE  0000000001345162018-02-272018-02-272022-12-272022-12-27000000009196348000000000006000000000000134500
D100201160400258MASAD ALMUTAIRI                         ACTIVE  0000000000000002018-03-192018-03-192019-10-272019-10-27000000009988686000000000006000000000000000000
D100201161100840MASHAN ALOTAIBI                         ACTIVE  0000000003371882018-02-252018-02-252019-10-252019-10-25000000004222532000000000006000000000000168500
D100201161201216MASOUD ALDAWSARI                        ACTIVE  0000000002656372018-02-272018-02-272022-06-272022-06-27000000018064939000000000006000000000000265600
D100201160400008MASOUD ALSAAD                           ACTIVE  0000000000000002018-03-192018-03-192021-09-252021-09-25000000004036881000000000006000000000000000000
D100201170500677MAZEN ALASMARI                          ACTIVE  0000000000000002018-03-192018-03-192019-12-012019-12-01000000006351495000000000006000000000000000000
D100201161000759MDHASHA AL DOSSARY                      ACTIVE  0000000001060132018-02-252018-02-252022-03-252022-03-25000000005705572000000000006000000000000106000
D100201160300053MEDHAT MANSOUR                          ACTIVE  0000000000000002018-03-192018-03-192019-09-012019-09-01000000003496732000000000006000000000000000000
D100201171100712MESFER ALDAWSARI                        ACTIVE  0000000000000002018-03-192018-03-192023-05-272023-05-27000000009101519000000000006000000000000000000
D100201171000176MESFER ALGHAMDI                         ACTIVE  0000000002199612018-02-272018-02-272023-03-272023-03-27000000015803716000000000006000000000000219900
D100201170700172MESHAAL ALANAZI                         ACTIVE  0000000001118722018-02-272018-02-272023-02-272023-02-27000000007525460000000000006000000000000111800
D100201170900026MEZAR ALSHAMMARI                        ACTIVE  0000000000000002018-03-192018-03-192023-03-272023-03-27000000007852370000000000006000000000000000000
D100201160800682MEZNA ALHEDAITHY                        ACTIVE  0000000000000002018-03-192018-03-192022-01-252022-01-25000000014667717000000000006000000000000000000
D100201161100446MIDHAT ALSAYED SALEM                    ACTIVE  0000000002505822018-03-012018-03-012022-06-012022-06-01000000007173481000000000006000000000000125200
D100201170600550MIHMAS ALQAHTANI                        ACTIVE  0000000000000002018-02-272018-02-272020-09-272020-09-27000000003652331000000000006000000000000000000
D100201160300292MISFIR ALQAHTANI                        ACTIVE  0000000001347962018-02-252018-02-252021-08-252021-08-25000000007084924000000000006000000000000134700
D100201170800403MISLAT ALOTAIBI                         ACTIVE  0000000000000002018-03-192018-03-192023-02-272023-02-27000000007887638000000000006000000000000000000
D100201150800400MISTURA ALMALIKI                        ACTIVE  0000000003509952018-02-272018-02-272021-02-272021-02-27000000008871545000000000006000000000000209900
D100201170500992BARAKAT ALRASHDI                        ACTIVE  0000000000000002018-03-192018-03-192022-11-272022-11-27000000010783428000000000006000000000000000000
D100201160400353BARRONE CONKRITE                        ACTIVE  0000000000000002018-03-192018-03-192021-10-272021-10-27000000009946902000000000006000000000000000000
D100201170600355BASIL AL KHOUSI                         ACTIVE  0000000000000002018-03-192018-03-192021-01-012021-01-01000000005201129000000000006000000000000000000
D100201150500665WADIA ALGHAMDI                          ACTIVE  0000000000000002018-03-192018-03-192020-11-272020-11-27000000007781483000000000006000000000000000000
D100201170700126WALEED ALAMRI                           ACTIVE  0000000000000002018-03-192018-03-192022-12-272022-12-27000000010060596000000000006000000000000000000
D100201161201115WALEED ALANAZI                          ACTIVE  0000000000000002018-03-192018-03-192022-06-252022-06-25000000008770877000000000006000000000000000000
D100201170700544WALEED ALKHATHRAN                       ACTIVE  0000000000000002018-03-192018-03-192023-01-272023-01-27000000014721497000000000006000000000000000000
D100201160500721WALEED ALMALKI                          ACTIVE  0000000000000002018-03-192018-03-192021-12-012021-12-01000000018125590000000000006000000000000000000
D100201150500191WALEED ALSUDAIRI                        ACTIVE  0000000000000002018-03-192018-03-192019-12-252019-12-25000000004268296000000000006000000000000000000
D100201170300617WALEED ALSULAMI                         ACTIVE  0000000002959972018-03-102018-03-102022-10-102022-10-10000000009167816000000000006000000000000148200
D100201160300393WALEED KAMAL                            ACTIVE  0000000001894642018-03-012018-03-012021-10-012021-10-01000000007206213000000000006000000000000189400
D100201160600568WALID ALNASYAN                          ACTIVE  0000000000000002018-03-192018-03-192022-01-012022-01-01000000008559629000000000006000000000000000000
D100201171200074WAQAS MOHAMMED ASLAM                    ACTIVE  0000000000000002018-03-192018-03-192023-06-012023-06-01000000010951706000000000006000000000000000000
D100201170300095WASAYF ALMUTAIRI                        ACTIVE  0000000000000002018-03-192018-03-192022-08-272022-08-27000000006021840000000000006000000000000000000
D100201170600704WASEL ALSBEIT                           ACTIVE  0000000001249282018-02-272018-02-272021-09-272021-09-27000000005972264000000000006000000000000124900
D100201150400057WESAM MOHAMMED                          ACTIVE  0000000002364362018-03-012018-03-012019-11-012019-11-01000000001896005000000000006000000000000118200
D100203171100035YAHYA AL SULIMAN                        ACTIVE  0000000000000002018-03-192018-03-192023-05-252023-05-25000000010824918000000000006000000000000000000
D100201160200197YAHYA ALQAHTANI                         ACTIVE  0000000000000002018-03-192018-03-192021-08-272021-08-27000000005539380000000000006000000000000000000
D100201141100059YAHYA ALSAQR                            ACTIVE  0000000000000002018-03-192018-03-192019-04-272019-04-27000000001772048000000000006000000000000000000
D100201151200133ALI ALSHAMRANI                          ACTIVE  0000000000000002018-03-192018-03-192021-06-272021-06-27000000027876814000000000006000000000000000000
D100201150200383ALI ALSHEHRI                            ACTIVE  0000000002116402018-02-272018-02-272020-07-272020-07-27000000004208720000000000006000000000000105900
D100201150400218ALI ALSHUWAYBI                          ACTIVE  0000000002136962018-02-252018-02-252020-09-252020-09-25000000003414896000000000006000000000000106800
D100201140400239ALI FALLATAH                            ACTIVE  0000000000000002018-03-192018-03-192019-10-272019-10-27000000003697176000000000006000000000000000000
D100201170200573ALI HASAN                               ACTIVE  0000000000000002018-03-192018-03-192022-09-012022-09-01000000009339758000000000006000000000000000000
D100201161000538ALI HAZAZI                              ACTIVE  0000000000000002018-03-192018-03-192022-04-252022-04-25000000006628690000000000006000000000000000000
D100201161100622ALI JOFI                                ACTIVE  0000000000000002018-03-192018-03-192022-04-252022-04-25000000005018536000000000006000000000000000000
D100201170700216ALI KHUBRANI                            ACTIVE  0000000000000002018-03-192018-03-192023-01-012023-01-01000000007660925000000000006000000000000000000
D100201150900144ALI RAJHI                               ACTIVE  0000000000000002018-03-192018-03-192021-02-272021-02-27000000008570360000000000006000000000000000000
D100201161100302ALI YOUSEF                              ACTIVE  0000000000000002018-03-192018-03-192022-05-012022-05-01000000005447330000000000006000000000000000000
D100201171100502ABDULKHALIQ ALGHAMDI                    ACTIVE  0000000000000002018-03-192018-03-192023-05-272023-05-27000000007946369000000000006000000000000000000
D100203170800212ABDULLAH ALABDULBAQI                    ACTIVE  0000000000000002018-03-192018-03-192021-10-252021-10-25000000013485108000000000006000000000000000000
D100201150300418ABDULLAH ALAHMARI                       ACTIVE  0000000001485612018-02-252018-02-252020-08-252020-08-25000000006585225000000000006000000000000148500
D100201160200024ABDULLAH ALAJMI                         ACTIVE  0000000000000002018-03-192018-03-192021-08-312021-08-31000000007871412000000000006000000000000000000
D100203170700102ABDULLAH ALALYANI                       ACTIVE  0000000000000002018-03-192018-03-192020-01-272020-01-27000000003309541000000000006000000000000000000
D100201161000898ABDULLAH ALAMMARI                       ACTIVE  0000000000000002018-03-192018-03-192022-03-252022-03-25000000011069193000000000006000000000000000000
D100203171000143ABDULLAH ALAMRI                         ACTIVE  0000000000000002018-03-192018-03-192023-04-252023-04-25000000007039169000000000006000000000000000000
D100201170600034ABDULLAH ALANAZI                        ACTIVE  0000000000000002018-03-192018-03-192020-11-272020-11-27000000012286353000000000006000000000000000000
D100201170600195ABDULLAH ALANAZI                        ACTIVE  0000000012233762018-02-272018-02-272022-12-272022-12-27000000011506320000000000006000000000000152900
D100201161000486ABDULLAH ALARFAJ                        ACTIVE  0000000028167302018-03-012018-03-012022-05-012022-05-01000000013119138000000000006000000000000187700
D100201180200472ABDULLAH ALASMARI                       ACTIVE  0000000000000002018-03-192018-03-192020-09-012020-09-01000000006351500000000000006000000000000000000
D100201140300138ABDULLAH ALASRANI                       ACTIVE  0000000001794842018-02-282018-02-282019-09-292019-09-29000000003361880000000000006000000000000179400
D100201160500718ABDULLAH ALBAKHET                       ACTIVE  0000000000000002018-03-192018-03-192021-12-272021-12-27000000019017680000000000006000000000000000000
D100201150500335ABDULLAH ALBARIQI                       ACTIVE  0000000000000002018-03-192018-03-192020-11-272020-11-27000000009291733000000000006000000000000000000
D100201160300064ABDULLAH ALBISHI                        ACTIVE  0000000000000002018-03-192018-03-192021-08-272021-08-27000000008726848000000000006000000000000000000
D100201161000361ABDULLAH ALDAKHEEL                      ACTIVE  0000000008754932018-03-012018-03-012021-06-012021-06-01000000013149738000000000006000000000000291800
D100201171200207ABDULLAH ALDAWSARI                      ACTIVE  0000000000000002018-03-192018-03-192023-06-262023-06-26000000007165916000000000006000000000000000000
D100201141200027ABDULLAH ALDURAIBI                      ACTIVE  0000000000000002018-03-192018-03-192020-06-272020-06-27000000008852482000000000006000000000000000000
D100201170600860ABDULLAH ALGHAMDI                       ACTIVE  0000000000000002018-03-192018-03-192022-12-272022-12-27000000007753904000000000006000000000000000000
D100201140800066HASSAN ABDULLAH                         ACTIVE  0000000000000002018-03-192018-03-192020-02-292020-02-29000000003012774000000000006000000000000000000
D100201170900187HASSAN ALSHAHRANI                       ACTIVE  0000000000000002018-03-192018-03-192023-03-272023-03-27000000008765565000000000006000000000000000000
D100201141200332HASSAN ALSHEHRI                         ACTIVE  0000000000484482018-02-272018-02-272020-06-272020-06-27000000003553824000000000006000000000000048400
D100201170700260HASSAN KARK                             ACTIVE  0000000000000002018-03-192018-03-192023-01-252023-01-25000000009659320000000000006000000000000000000
D100201170900517HATEM HASSANEIN                         ACTIVE  0000000000000002018-03-192018-03-192021-04-102021-04-10000000008802680000000000006000000000000000000
D100201180200288HAWFAN ALQARNI                          ACTIVE  0000000000000002018-03-192018-03-192023-08-272023-08-27000000010402798000000000006000000000000000000
D100201170800205HAZEM EBID                              ACTIVE  0000000000000002018-03-192018-03-192019-02-012019-02-01000000003583638000000000006000000000000000000
D100201161200430HAZZAA ALDAWSARI                        ACTIVE  0000000000000002018-03-192018-03-192022-06-272022-06-27000000028776662000000000006000000000000000000
D100201150300265HELAL ALMUTAIRI                         ACTIVE  0000000000000002018-03-192018-03-192020-08-272020-08-27000000006017208000000000006000000000000000000
D100201160300531HISSAH BIN NUWAYQILAH                   ACTIVE  0000000000000002018-03-192018-03-192021-09-272021-09-27000000005593690000000000006000000000000000000
D100201170900305HOSSAM GHANDOUR                         ACTIVE  0000000000000002018-03-192018-03-192023-04-012023-04-01000000010071060000000000006000000000000000000
D100203170800113HOUSSAM ABOU AMMAR                      ACTIVE  0000000000000002018-03-192018-03-192023-03-252023-03-25000000007394305000000000006000000000000000000
D100201170700191QARRASH ALSHALAWI                       ACTIVE  0000000000000002018-03-192018-03-192023-01-272023-01-27000000009568104000000000006000000000000000000
D100201161100342QASEM KHUBRANI                          ACTIVE  0000000000000002018-03-192018-03-192022-05-252022-05-25000000008038823000000000006000000000000000000
D100201161100863QUBLAN ALRASHDI                         ACTIVE  0000000000000002018-03-192018-03-192022-05-272022-05-27000000006513735000000000006000000000000000000
D100201151100601RAAD DIGHRIRI                           ACTIVE  0000000020199062018-02-272018-02-272021-05-272021-05-27000000007786113000000000006000000000000144200
D100201150900143RAED ALOTAIBI                           ACTIVE  0000000001051252018-02-272018-02-272021-03-272021-03-27000000003364000000000000006000000000000105100
D100201161000420RAED ALOTAIBI                           ACTIVE  0000000003204142018-02-252018-02-252022-04-252022-04-25000000009008344000000000006000000000000160100
D100201170700783RAED BIN ZAID                           ACTIVE  0000000001816452018-02-272018-02-272023-01-272023-01-27000000008487282000000000006000000000000127200
D100201140800191RAFIA ALOTAIBI                          ACTIVE  0000000001105882018-02-272018-02-272020-02-272020-02-27000000002551172000000000006000000000000110500
D100201170100177RAJEH ALSAHLI                           ACTIVE  0000000000000002018-03-192018-03-192022-06-272022-06-27000000005773116000000000006000000000000000000
D100201171100385RAKAN SHAFI                             ACTIVE  0000000000000002018-03-192018-03-192023-05-262023-05-26000000013025523000000000006000000000000000000
D100201150600603RAMI BAWADI                             ACTIVE  0000000000000002018-03-192018-03-192021-01-012021-01-01000000009052102000000000006000000000000000000
D100203180100282RAMZI ABSA                              ACTIVE  0000000000000002018-03-192018-03-192023-07-272023-07-27000000009118859000000000006000000000000000000
D100201160801026RASHED ALOTAIBI                         ACTIVE  0000000000000002018-03-192018-03-192022-02-272022-02-27000000011441548000000000006000000000000000000
D100201170500823RASHED ALOTAIBI                         ACTIVE  0000000000000002018-03-192018-03-192022-11-252022-11-25000000012747927000000000006000000000000000000
D100201170100147RASHED BIN JERAIS                       ACTIVE  0000000000000002018-03-192018-03-192022-07-012022-07-01000000016119413000000000006000000000000000000
D100201171100358RASHEED FAQAIHI                         ACTIVE  0000000000000002018-03-192018-03-192023-05-272023-05-27000000011518398000000000006000000000000000000
D100201140600132RASHID ELKHATEEB                        ACTIVE  0000000000000002018-03-192018-03-192019-02-282019-02-28000000001290390000000000006000000000000000000
D100201180100297REEF ALMUTAIRI                          ACTIVE  0000000000000002018-03-192018-03-192023-07-272023-07-27000000007653200000000000006000000000000000000
D100201170800589REJIENA SIAPCO                          ACTIVE  0000000001096072018-02-272018-02-272023-02-272023-02-27000000007753733000000000006000000000000109600
D100203171000062MOHAMMED ALRASHED                       ACTIVE  0000000001517752018-02-282018-02-282023-04-282023-04-28000000011351659000000000006000000000000151700
D100201171100459MOHAMMED ALSAHLI                        ACTIVE  0000000000000002018-03-192018-03-192023-05-252023-05-25000000012108781000000000006000000000000000000
D100201170600011MOHAMMED ALSDES                         ACTIVE  0000000000000002018-03-192018-03-192019-06-272019-06-27000000007522020000000000006000000000000000000
D100201150100076MOHAMMED ALSHAHRI                       ACTIVE  0000000000000002018-03-192018-03-192019-06-272019-06-27000000004335620000000000006000000000000000000
D100201160500031MOHAMMED ALSHAHRI                       ACTIVE  0000000000000002018-03-192018-03-192021-10-252021-10-25000000010231810000000000006000000000000000000
D100201151000094MOHAMMED ALSHALWI                       ACTIVE  0000000000000002018-03-192018-03-192021-04-272021-04-27000000010656112000000000006000000000000000000
D100201160700484MOHAMMED ALSHAMRANI                     ACTIVE  0000000000000002018-03-192018-03-192022-01-272022-01-27000000008492780000000000006000000000000000000
D100201161100065MOHAMMED ALSUBAIE                       ACTIVE  0000000000000002018-03-192018-03-192022-05-272022-05-27000000007040400000000000006000000000000000000
D100201150300440MOHAMMED ALSULAMI                       ACTIVE  0000000003325622018-03-152018-03-152020-10-152020-10-15000000007437462000000000006000000000000166500
D100201161000379MOHAMMED ALSUWAYDANI                    ACTIVE  0000000000000002018-03-192018-03-192022-04-252022-04-25000000007943202000000000006000000000000000000
D100201170900519MOHAMMED ALTHAYAYBI                     ACTIVE  0000000000000002018-03-192018-03-192023-03-272023-03-27000000011289325000000000006000000000000000000
D100201170600653MOHAMMED ALTUWALAH                      ACTIVE  0000000000000002018-03-192018-03-192022-12-272022-12-27000000010113968000000000006000000000000000000
D100201151000038MOHAMMED ALYAMI                         ACTIVE  0000000000000002018-03-192018-03-192021-03-252021-03-25000000003522684000000000006000000000000000000
D100201160500699MOHAMMED ALZEER                         ACTIVE  0000000000000002018-03-192018-03-192019-11-252019-11-25000000003826225000000000006000000000000000000
D100201171100391MOHAMMED ASIRI                          ACTIVE  0000000000000002018-03-192018-03-192023-05-272023-05-27000000007314505000000000006000000000000000000
D100201160500163MOHAMMED AWADH                          ACTIVE  0000000004559182018-03-012018-03-012019-12-012019-12-01000000007911340000000000006000000000000327900
D100201170300138MOHAMMED BABAEER                        ACTIVE  0000000000000002018-03-192018-03-192022-09-012022-09-01000000005879124000000000006000000000000000000
D100203171100022MOHAMMED BALHARETH                      ACTIVE  0000000000000002018-03-192018-03-192023-05-012023-05-01000000007950704000000000006000000000000000000
D100201160300091MOHAMMED BASHEER                        ACTIVE  0000000000000002018-03-192018-03-192020-07-012020-07-01000000005049650000000000006000000000000000000
D100201170400586MOHAMMED BENMOUSA                       ACTIVE  0000000002416822018-02-282018-02-282022-10-282022-10-28000000016000800000000000006000000000000241600
D100201170700226MOHAMMED BIN OBAID                      ACTIVE  0000000000000002018-03-192018-03-192023-01-252023-01-25000000009507575000000000006000000000000000000
D100201170300775MOHAMMED BURAYKAH                       ACTIVE  0000000000000002018-03-192018-03-192022-09-272022-09-27000000012695169000000000006000000000000000000
D100201161101351MOHAMMED FARAJ                          ACTIVE  0000000000000002018-03-192018-03-192019-06-012019-06-01000000002058304000000000006000000000000000000
D100201180100622MOHAMMED GHUNAIM                        ACTIVE  0000000000000002018-03-192018-03-192020-08-012020-08-01000000008948057000000000006000000000000000000
D100201150400138KHALID ALKHUDHIR                        ACTIVE  0000000000000002018-03-192018-03-192018-09-272018-09-27000000000200842000000000006000000000000000000
D100201150300366KHALID ALOTAIBI                         ACTIVE  0000000040243002018-03-012018-03-012020-11-012020-11-01000000010908600000000000006000000000000185500
D100201180100022KHALID ALOTAIBI                         ACTIVE  0000000000000002018-03-192018-03-192023-07-282023-07-28000000011659405000000000006000000000000000000
D100201150500030KHALID ALOTHAYMIN                       ACTIVE  0000000000000002018-03-192018-03-192020-10-272020-10-27000000002895958000000000006000000000000000000
D100201171000008KHALID ALSHEHRI                         ACTIVE  0000000000000002018-03-192018-03-192023-03-272023-03-27000000005375110000000000006000000000000000000
D100201170400416KHALID ALZAHRANI                        ACTIVE  0000000000000002018-03-192018-03-192022-10-272022-10-27000000013282550000000000006000000000000000000
D100201160400428KHALID FARHAN                           ACTIVE  0000000000477462018-03-012018-03-012019-05-012019-05-01000000001647628000000000006000000000000047700
D100201180100138KHALID OBAIDALLAH                       ACTIVE  0000000000000002018-03-192018-03-192023-06-272023-06-27000000016979494000000000006000000000000000000
D100201161101197KHALID SHARAHILI                        ACTIVE  0000000001300952018-02-272018-02-272022-05-272022-05-27000000007283750000000000006000000000000129800
D100201160700301KHALIF ALSHAMMARI                       ACTIVE  0000000000000002018-03-192018-03-192022-01-272022-01-27000000015356325000000000006000000000000000000
D100201170600903KHATTAB AHMED                           ACTIVE  0000000000000002018-03-192018-03-192023-01-012023-01-01000000009766098000000000006000000000000000000
D100201171000158KHUDHAYR ALANAZI                        ACTIVE  0000000000000002018-03-192018-03-192023-03-252023-03-25000000010715510000000000006000000000000000000
D100201170100019LAFI ALJAHDALY                          ACTIVE  0000000000000002018-03-192018-03-192020-10-252020-10-25000000010504256000000000006000000000000000000
D100201150500209IBRAHIM ALSALOWM                        ACTIVE  0000000000000002018-03-192018-03-192020-10-252020-10-25000000004868170000000000006000000000000000000
D100201170700619IBRAHIM ALSHAMMARI                      ACTIVE  0000000000000002018-03-192018-03-192023-01-272023-01-27000000006890032000000000006000000000000000000
D100201170600363IBRAHIM ALSHEHRI                        ACTIVE  0000000000000002018-03-192018-03-192022-11-272022-11-27000000008419464000000000006000000000000000000
D100201161201065IBRAHIM BIN AZZAZ                       ACTIVE  0000000000000002018-03-192018-03-192022-07-012022-07-01000000007143385000000000006000000000000000000
D100201160600592IBRAHIM BIN SHURAYYAN                   ACTIVE  0000000000000002018-03-192018-03-192021-12-272021-12-27000000008284940000000000006000000000000000000
D100201160900104INAD ALHEJAILI                          ACTIVE  0000000000000002018-03-192018-03-192021-03-252021-03-25000000004333312000000000006000000000000000000
D100201161101037ISLAM DHIYAA                            ACTIVE  0000000000000002018-03-192018-03-192022-06-012022-06-01000000005097759000000000006000000000000000000
D100201160801004ISLAM MOHAMED                           ACTIVE  0000000000000002018-03-192018-03-192022-03-012022-03-01000000006617836000000000006000000000000000000
D100203180100244ISMAIL ALQAHTANI                        ACTIVE  0000000000000002018-03-192018-03-192023-07-282023-07-28000000012849577000000000006000000000000000000
D100201161000243JABAR ALTAWMI                           ACTIVE  0000000000000002018-03-192018-03-192022-04-252022-04-25000000004669764000000000006000000000000000000
D100201151100331JAMEEL ALMALKI                          ACTIVE  0000000000994372018-02-272018-02-272021-05-272021-05-27000000003830858000000000006000000000000099400
D100203180100055JAMEEL ALTHOMALI                        ACTIVE  0000000000000002018-03-192018-03-192023-07-272023-07-27000000014647328000000000006000000000000000000
D100201171200307JAMILAH ALJUMAYD                        ACTIVE  0000000000000002018-03-192018-03-192021-06-262021-06-26000000006323861000000000006000000000000000000
D100201170500810JARALLAH ALSUWAYNI                      ACTIVE  0000000000000002018-03-192018-03-192022-12-012022-12-01000000008339657000000000006000000000000000000
D100201170501203JARMAN ALKAHTANI                        ACTIVE  0000000001161052018-02-272018-02-272022-11-272022-11-27000000008077460000000000006000000000000116100
D100201151000183JAWZA ALOTAIBI                          ACTIVE  0000000000471902018-02-272018-02-272021-03-272021-03-27000000004707285000000000006000000000000047100
D100201150600600M AL                                    ACTIVE  0000000000000002018-02-252018-02-252020-11-252020-11-25000000007664380000000000006000000000000000000
D100201160700229MAAZ ALFRAIHI                           ACTIVE  0000000000000002018-03-192018-03-192020-02-282020-02-28000000004619628000000000006000000000000000000
D100201161200429MADHAT GABER                            ACTIVE  0000000000982662018-03-012018-03-012021-06-012021-06-01000000004178536000000000006000000000000098200
D100201170100521MADIHAH GHUNAIM                         ACTIVE  0000000003561962018-02-272018-02-272019-10-272019-10-27000000002737520000000000006000000000000118600
D100201161200852MAJED ABUNASSIF                         ACTIVE  0000000000000002018-03-192018-03-192022-06-272022-06-27000000012126978000000000006000000000000000000
D100201170800703MAJED AL JABIR                          ACTIVE  0000000000000002018-03-192018-03-192023-03-272023-03-27000000011868825000000000006000000000000000000
D100203180100035MAJED ALHARBI                           ACTIVE  0000000000000002018-03-192018-03-192023-07-272023-07-27000000009652348000000000006000000000000000000
D100201170100026MAJED ALTUWAYM                          ACTIVE  0000000000000002018-03-192018-03-192022-06-272022-06-27000000009270492000000000006000000000000000000
D100201160900015MAJED GHAEB                             ACTIVE  0000000000000002018-03-192018-03-192022-02-272022-02-27000000015000388000000000006000000000000000000
D100201161201072MALIK AL MALKI                          ACTIVE  0000000000000002018-03-192018-03-192022-07-272022-07-27000000009426644000000000006000000000000000000
D100201161000704MANA ALQAHTANI                          ACTIVE  0000000000000002018-03-192018-03-192022-05-012022-05-01000000005881852000000000006000000000000000000
D100201160800433MANDEEL BIRKY                           ACTIVE  0000000000000002018-03-192018-03-192020-03-012020-03-01000000004649197000000000006000000000000000000
D100201161101332SULAIMAN ALRASHEED                      ACTIVE  0000000001657082018-03-012018-03-012022-06-012022-06-01000000010524905000000000006000000000000165700
D100201170500996SULIMAN ALKAHTANI                       ACTIVE  0000000000900032018-02-272018-02-272022-11-272022-11-27000000005780156000000000006000000000000090000
D100201180200459SULTAN AL MOTARI                        ACTIVE  0000000000000002018-03-192018-03-192023-08-272023-08-27000000009667883000000000006000000000000000000
D100201180100255SULTAN ALDOSARI                         ACTIVE  0000000000000002018-03-192018-03-192023-07-272023-07-27000000012677746000000000006000000000000000000
D100201170800603SULTAN ALHARTHI                         ACTIVE  0000000000000002018-03-192018-03-192018-09-272018-09-27000000001213267000000000006000000000000000000
D100201170300705SULTAN ALMUSAYFIR                       ACTIVE  0000000007694782018-02-272018-02-272022-09-272022-09-27000000007196636000000000006000000000000109900
D100201170100993SULTAN BIN TALHAH                       ACTIVE  0000000000000002018-03-192018-03-192022-07-272022-07-27000000008042946000000000006000000000000000000
D100201170900349SUMAYA SARIF                            ACTIVE  0000000001774802018-02-282018-02-282023-03-282023-03-28000000010526738000000000006000000000000143400
D100201170900133SURESH KRISHNA                          ACTIVE  0000000000000002018-03-192018-03-192023-05-012023-05-01000000012202780000000000006000000000000000000
D100201150600709JEBRAN HANTOOL                          ACTIVE  0000000000000002018-03-192018-03-192020-12-252020-12-25000000012004484000000000006000000000000000000
D100201170100662JOHARAH ALRASHEED                       ACTIVE  0000000000000002018-03-192018-03-192019-01-252019-01-25000000001008940000000000006000000000000000000
D100201161000992JOZAH ALANAZE                           ACTIVE  0000000000000002018-03-192018-03-192022-04-252022-04-25000000009621979000000000006000000000000000000
D100201170900400KAMAL ALMASRI                           ACTIVE  0000000000000002018-03-192018-03-192020-07-272020-07-27000000005955184000000000006000000000000000000
D100201171100594KAMAL ELGHABAR                          ACTIVE  0000000000000002018-03-192018-03-192023-06-012023-06-01000000007239605000000000006000000000000000000
D100201150700362KAMRAN IDREES                           ACTIVE  0000000000000002018-03-192018-03-192021-03-012021-03-01000000009240238000000000006000000000000000000
D100201171200175KAREEM ABDULHALIM                       ACTIVE  0000000000000002018-03-192018-03-192021-06-012021-06-01000000009466186000000000006000000000000000000
D100201150700284KAREM RADWAN                            ACTIVE  0000000001519922018-03-012018-03-012021-02-012021-02-01000000007012983000000000006000000000000151900
D100201161101253KAZIA ALATIBIB                          ACTIVE  0000000001410372018-02-272018-02-272022-05-272022-05-27000000007931702000000000006000000000000141000
D100201160200535KHALAF ALDAWSARI                        ACTIVE  0000000006537222018-03-012018-03-012021-09-012021-09-01000000008081550000000000006000000000000163200
D100201180100130ABUTALEB OTAYNI                         ACTIVE  0000000000000002018-03-192018-03-192023-07-272023-07-27000000008331954000000000006000000000000000000
D100201150400530RIYADH ALZAHRANI                        ACTIVE  0000000001079442018-02-272018-02-272020-10-272020-10-27000000007345156000000000006000000000000107900
D100201160400118RUDAYNI KHUBRANI                        ACTIVE  0000000001552512018-02-272018-02-272021-10-272021-10-27000000008961097000000000006000000000000155200
D100201150700116MOHAMMED ALHAKBANI                      ACTIVE  0000000000000002018-03-192018-03-192018-12-272018-12-27000000004563292000000000006000000000000000000
D100201170300205MOHAMMED ALHANBASI                      ACTIVE  0000000000000002018-03-192018-03-192022-09-272022-09-27000000010525833000000000006000000000000000000
D100201150600602MOHAMMED ALHARBI                        ACTIVE  0000000005106122018-02-272018-02-272020-12-272020-12-27000000010186880000000000006000000000000255500
D100201170400710MOHAMMED ALHARBI                        ACTIVE  0000000000000002018-03-192018-03-192021-09-272021-09-27000000006939198000000000006000000000000000000
D100201171200815MOHAMMED ALHARTHI                       ACTIVE  0000000000000002018-03-192018-03-192022-06-272022-06-27000000007943768000000000006000000000000000000
D100201170200553MOHAMMED ALI                            ACTIVE  0000000000000002018-03-192018-03-192020-08-252020-08-25000000005893251000000000006000000000000000000
D100201170100257MOHAMMED ALKAHTANI                      ACTIVE  0000000000000002018-03-192018-03-192022-07-272022-07-27000000004395098000000000006000000000000000000
D100201150800179MOHAMMED ALKHURMI                       ACTIVE  0000000001230802018-02-272018-02-272021-01-272021-01-27000000005552400000000000006000000000000123000
D100201151100222MOHAMMED ALMALKI                        ACTIVE  0000000000000002018-03-192018-03-192021-04-272021-04-27000000004477520000000000006000000000000000000
D100203171100200MOHAMMED ALMALKI                        ACTIVE  0000000002961762018-02-282018-02-282023-05-282023-05-28000000021946012000000000006000000000000296100
D100201170400265MOHAMMED ALMOHSEN                       ACTIVE  0000000000000002018-03-192018-03-192022-10-252022-10-25000000008574960000000000006000000000000000000
D100201160500550MOHAMMED ALMUTAIRI                      ACTIVE  0000000000000002018-03-192018-03-192021-11-272021-11-27000000007479477000000000006000000000000000000
D100201170500030MOHAMMED ALMUTAIRI                      ACTIVE  0000000000965852018-02-272018-02-272022-10-272022-10-27000000006935835000000000006000000000000096500
D100201160800350MOHAMMED ALOSAIMI                       ACTIVE  0000000000000002018-03-192018-03-192022-02-272022-02-27000000014329022000000000006000000000000000000
D100201170300314MOHAMMED ALOTAIBI                       ACTIVE  0000000000000002018-03-192018-03-192022-09-272022-09-27000000015341666000000000006000000000000000000
D100201170300142MOHAMMED ALOTAIBI                       ACTIVE  0000000000000002018-03-192018-03-192022-08-272022-08-27000000007270876000000000006000000000000000000
D100201171200039MOHAMMED ALOTAIBI                       ACTIVE  0000000001779732018-02-242018-02-242023-06-262023-06-26000000012850427000000000006000000000000177900
D100201160900409BELAL SALEM                             ACTIVE  0000000000000002018-03-192018-03-192022-04-012022-04-01000000005550713000000000006000000000000000000
D100201170600849BENEDICTO SULIT                         ACTIVE  0000000000000002018-03-192018-03-192021-02-012021-02-01000000006722238000000000006000000000000000000
D100203170500258BRAIN MASANGO                           ACTIVE  0000000000000002018-03-012018-03-012022-12-012022-12-01000000017908691000000000006000000000000000000
D100201161001041DAIAA AHMED                             ACTIVE  0000000001244302018-03-012018-03-012022-05-012022-05-01000000006904664000000000006000000000000124400
D100201170700388DALAL ALKHAMASH                         ACTIVE  0000000000000002018-03-192018-03-192023-01-272023-01-27000000012259432000000000006000000000000000000
D100203180200367DASMAN ALSUBAIE                         ACTIVE  0000000011524802018-03-082018-03-082023-08-272023-08-27000000014500800000000000006000000000001152400
D100201170200886DHUBAYYIB ALOTAIBI                      ACTIVE  0000000000000002018-03-192018-03-192022-09-102022-09-10000000008412004000000000006000000000000000000
D100201171000302EHAB HATIM                              ACTIVE  0000000000000002018-03-192018-03-192021-04-282021-04-28000000005987586000000000006000000000000000000
D100203180100203EISSA ALMUAYWEED                        ACTIVE  0000000000000002018-03-192018-03-192023-08-312023-08-31000000014915610000000000006000000000000000000
D100201170300036EL MOSTAFA ISMAILI                      ACTIVE  0000000000000002018-03-192018-03-192020-09-012020-09-01000000004722408000000000006000000000000000000
D100201170700087EMAD ALANAZI                            ACTIVE  0000000002156172018-02-272018-02-272023-01-272023-01-27000000015154060000000000006000000000000215600
D100201160300152EMAD ELDIN AHMED                        ACTIVE  0000000000000002018-03-192018-03-192019-09-282019-09-28000000003233319000000000006000000000000000000
D100201171100469EMAN ALSALEM                            ACTIVE  0000000000000002018-03-192018-03-192023-05-252023-05-25000000006612000000000000006000000000000000000
D100201161200619EVAN SOMBILON                           ACTIVE  0000000001048422018-03-012018-03-012022-07-012022-07-01000000005982898000000000006000000000000104800
D100201161000796ABDULLAH ALHAMEDI                       ACTIVE  0000000011339552018-02-252018-02-252022-04-252022-04-25000000007967758000000000006000000000000125900
D100201170600869ABDULLAH ALHARBI                        ACTIVE  0000000000000002018-03-192018-03-192022-12-272022-12-27000000010360820000000000006000000000000000000
D100201170200393ABDULLAH ALHARTHI                       ACTIVE  0000000000000002018-03-192018-03-192022-08-252022-08-25000000012085668000000000006000000000000000000
D100201170100315ABDULLAH ALHAWITI                       ACTIVE  0000000000000002018-03-192018-03-192019-07-272019-07-27000000003981552000000000006000000000000000000
D100201160300407ABDULLAH ALHAZZAA                       ACTIVE  0000000000000002018-03-192018-03-192018-11-012018-11-01000000000952192000000000006000000000000000000
D100201170401016ABDULLAH ALHUMAYYIM                     ACTIVE  0000000000000002018-03-192018-03-192022-10-272022-10-27000000008519600000000000006000000000000000000
D100201160900343ABDULLAH ALJUNIDEL                      ACTIVE  0000000002554502018-02-252018-02-252020-04-252020-04-25000000003958450000000000006000000000000185100
D100201170100990ABDULLAH ALJUTAYLI                      ACTIVE  0000000001589902018-03-012018-03-012022-08-012022-08-01000000009796529000000000006000000000000158800
D100201161200285ABDULLAH ALMOHAIMEED                    ACTIVE  0000000000000002018-03-192018-03-192020-07-012020-07-01000000004516253000000000006000000000000000000
D100201170500436ABDULLAH ALMUHAYDIB                     ACTIVE  0000000000000002018-03-192018-03-192022-11-272022-11-27000000005251470000000000006000000000000000000
D100201170501165ABDULLAH ALMUQBIL                       ACTIVE  0000000002327412018-02-252018-02-252021-11-252021-11-25000000012645540000000000006000000000000232700
D100201161000653ABDULLAH ALMUQBIL                       ACTIVE  0000000001991052018-02-252018-02-252021-04-252021-04-25000000008895465000000000006000000000000199100
D100201140900311ABDULLAH ALOMRAN                        ACTIVE  0000000000000002018-03-192018-03-192019-02-272019-02-27000000004047804000000000006000000000000000000
D100201160300014ABDULLAH ALOTAIBI                       ACTIVE  0000000000859212018-02-252018-02-252021-07-252021-07-25000000003891156000000000006000000000000085900
D100201170700565ABDULLAH ALQAHTANI                      ACTIVE  0000000000000002018-03-192018-03-192023-01-272023-01-27000000011965336000000000006000000000000000000
D100201170700258ABDULLAH ALSAYHANI                      ACTIVE  0000000001620442018-02-272018-02-272023-01-272023-01-27000000011240376000000000006000000000000162000
D100201161100220ABDULLAH ALSHABANAT                     ACTIVE  0000000000000002018-03-192018-03-192021-04-252021-04-25000000003608471000000000006000000000000000000
D100201160100005ABDULLAH ALSHAHRANI                     ACTIVE  0000000000000002018-03-192018-03-192021-06-272021-06-27000000004937822000000000006000000000000000000
D100201170700512MOHAMAD FADGHAM                         ACTIVE  0000000001646122018-02-272018-02-272023-01-272023-01-27000000011671548000000000006000000000000164600
D100201170100551MOHAMED ALI                             ACTIVE  0000000000000002018-03-192018-03-192020-07-052020-07-05000000003264259000000000006000000000000000000
D100201170101004MOHAMED AMER                            ACTIVE  0000000000000002018-03-192018-03-192019-08-012019-08-01000000003750854000000000006000000000000000000
D100201170200737MOHAMED DAWOUD                          ACTIVE  0000000007996452018-03-012018-03-012019-09-012019-09-01000000003337503000000000006000000000000159900
D100201171100530MOHAMED ELBEHEIRY                       ACTIVE  0000000001406192018-03-012018-03-012023-06-012023-06-01000000010426550000000000006000000000000140600
D100201171000897MOHAMED ELHALWANY                       ACTIVE  0000000000000002018-03-192018-03-192020-05-012020-05-01000000007609535000000000006000000000000000000
D100201161200399MOHAMED ELMETWALLI                      ACTIVE  0000000000000002018-03-192018-03-192022-07-012022-07-01000000008597754000000000006000000000000000000
D100201161100180MOHAMED FAYED                           ACTIVE  0000000000000002018-03-192018-03-192022-05-252022-05-25000000007392520000000000006000000000000000000
D100201161001045MOHAMED GALAL                           ACTIVE  0000000000000002018-03-192018-03-192020-10-252020-10-25000000004723480000000000006000000000000000000
D100201180200041MOHAMED MOHAMED                         ACTIVE  0000000000000002018-03-192018-03-192023-07-282023-07-28000000011120541000000000006000000000000000000
D100201160600152MOHAMED RAGAB                           ACTIVE  0000000000000002018-03-192018-03-192018-12-202018-12-20000000002185839000000000006000000000000000000
D100201170800685MOHAMED SHAJAHAN                        ACTIVE  0000000000000002018-03-192018-03-192021-03-012021-03-01000000008021368000000000006000000000000000000
D100201171100776MOHAMMAD ALKHATHLAN                     ACTIVE  0000000000000002018-03-192018-03-192021-05-272021-05-27000000007822878000000000006000000000000000000
D100201170100223ABDULAZIZ ALOMRAN                       ACTIVE  0000000000000002018-03-192018-03-192022-06-252022-06-25000000010230821000000000006000000000000000000
D100201170900501ABDULAZIZ ALOTAIBI                      ACTIVE  0000000001185642018-02-272018-02-272021-09-272021-09-27000000005150432000000000006000000000000118500
D100201171000056ABDULAZIZ ALQOAYED                      ACTIVE  0000000001328692018-02-172018-02-172023-04-252023-04-25000000009688533000000000006000000000000132800
D100201170900435ABDULAZIZ ALQOAYED                      ACTIVE  0000000001637382018-02-172018-02-172023-03-252023-03-25000000011719328000000000006000000000000163700
D100201170501137ABDULAZIZ ALSAHLI                       ACTIVE  0000000000000002018-03-192018-03-192022-11-272022-11-27000000011207727000000000006000000000000000000
D100201170700418ABDULAZIZ ALSANEA                       ACTIVE  0000000000000002018-03-192018-03-192023-01-272023-01-27000000011879174000000000006000000000000000000
D100201170500278ABDULAZIZ ALSULAMI                      ACTIVE  0000000000000002018-03-192018-03-192022-10-272022-10-27000000006733950000000000006000000000000000000
D100201160500174ABDULAZIZ ALYAHYA                       ACTIVE  0000000009086552018-03-012018-03-012020-12-012020-12-01000000020989615000000000006000000000000481700
D100201150400525ABDULAZIZ ALZAHEM                       ACTIVE  0000000000000002018-03-192018-03-192020-10-272020-10-27000000012568258000000000006000000000000000000
D100201151100528ABDULAZIZ ALZAHRANI                     ACTIVE  0000000000000002018-03-192018-03-192021-05-272021-05-27000000008491198000000000006000000000000000000
D100203171200180ABDULAZIZ BIN ESSA                      ACTIVE  0000000000000002018-03-192018-03-192023-07-012023-07-01000000009680824000000000006000000000000000000
D100201151000512ABDULAZIZ MOHAMMED                      ACTIVE  0000000002103022018-02-282018-02-282021-05-282021-05-28000000009125285000000000006000000000000210300
D100201151000368ABDULAZIZ MOHAMMED                      ACTIVE  0000000000000002018-03-192018-03-192021-05-012021-05-01000000007831190000000000006000000000000000000
D100201160300037ABDULBARI NASIF                         ACTIVE  0000000000000002018-03-192018-03-192019-09-012019-09-01000000002661609000000000006000000000000000000
D100201170500360ABDULELAH AL SHARID                     ACTIVE  0000000000000002018-03-192018-03-192022-11-012022-11-01000000010259828000000000006000000000000000000
D100201161100165ABDULELAH ALANAZI                       ACTIVE  0000000002522802018-02-252018-02-252021-04-252021-04-25000000017640260000000000006000000000000252200
D100201160100006ABDULELAH ALARIFI                       ACTIVE  0000000001429002018-02-272018-02-272021-06-272021-06-27000000006447725000000000006000000000000141900
D100201170800457ABDULELAH ALDHAYAN                      ACTIVE  0000000000000002018-03-192018-03-192023-02-272023-02-27000000006702246000000000006000000000000000000
D100201150300488ABDULELAH ALOTAIBI                      ACTIVE  0000000000000002018-03-192018-03-192020-09-272020-09-27000000008322900000000000006000000000000000000
D100201160300479ABDULELAH BIN RASHED                    ACTIVE  0000000001333002018-03-012018-03-012020-11-012020-11-01000000003603699000000000006000000000000133300
D100201161200031ABDULGHANI ALMUTAIRI                    ACTIVE  0000000000000002018-03-192018-03-192022-05-272022-05-27000000007565730000000000006000000000000000000
D100201170300466ABDULHADI ALBISHI                       ACTIVE  0000000000000002018-03-192018-03-192022-09-272022-09-27000000009644406000000000006000000000000000000
D100203170500232ABDULHADI ALHARBI                       ACTIVE  0000000008198282018-02-272018-02-272022-11-272022-11-27000000009963366000000000006000000000000136600
D100201171000528ABDULHADI ALQAHTANI                     ACTIVE  0000000002289432018-03-012018-03-012021-05-012021-05-01000000009852937000000000006000000000000228900
D100201170200072ABDULHAKIM ALGHAMDI                     ACTIVE  0000000000000002018-03-192018-03-192022-08-272022-08-27000000005886120000000000006000000000000000000
D100201170100650ABDULKARIM ALHARBI                      ACTIVE  0000000016270532018-02-272018-02-272022-07-272022-07-27000000009811860000000000006000000000000135500
D100201170900594ABDULKARIM ALSHAMMARI                   ACTIVE  0000000000000002018-03-192018-03-192023-05-012023-05-01000000008494373000000000006000000000000000000
D100201140500201SAEED ALZAHRANI                         ACTIVE  0000000000000002018-03-192018-03-192018-11-272018-11-27000000003887905000000000006000000000000000000
D100201171100290SAJIR ALANAZI                           ACTIVE  0000000000000002018-03-192018-03-192023-05-272023-05-27000000011797140000000000006000000000000000000
D100201150700302SALAH ALRASHDI                          ACTIVE  0000000000000002018-03-192018-03-192020-01-272020-01-27000000003459492000000000006000000000000000000
D100201170700356SALAH EDDIN ALALI                       ACTIVE  0000000000000002018-03-192018-03-192023-02-012023-02-01000000006975302000000000006000000000000000000
D100201150600368SALEEM ALSUBAIE                         ACTIVE  0000000036131922018-02-252018-02-252020-12-252020-12-25000000012263484000000000006000000000000221400
D100203171200164SALEH AL BAALHARITH                     ACTIVE  0000000000000002018-03-192018-03-192023-06-262023-06-26000000016039790000000000006000000000000000000
D100201170800726SALEH ALHARBI                           ACTIVE  0000000000000002018-03-192018-03-192023-02-272023-02-27000000007544662000000000006000000000000000000
D100201171200242SALEH ALKHALAF                          ACTIVE  0000000000000002018-02-252018-02-252023-06-252023-06-25000000008002438000000000006000000000000000000
D100201151100173SALEH ALSHEHRI                          ACTIVE  0000000001518832018-02-272018-02-272021-05-272021-05-27000000006704022000000000006000000000000151800
D100201170100626SALEH ALSUBAIE                          ACTIVE  0000000001331722018-02-272018-02-272022-07-272022-07-27000000007762256000000000006000000000000133100
D100201160200385SALEH ALTUWAYJIRI                       ACTIVE  0000000002781802018-03-012018-03-012020-09-012020-09-01000000003621267000000000006000000000000139000
D100201170800453SALEH BINOLAYAN                         ACTIVE  0000000000000002018-03-192018-03-192023-02-272023-02-27000000005329050000000000006000000000000000000
D100201161200402SALEH DIRHAM                            ACTIVE  0000000000000002018-02-272018-02-272022-06-272022-06-27000000008437822000000000006000000000000000000
D100201150800416SALEH YUSR                              ACTIVE  0000000000000002018-03-192018-03-192021-02-272021-02-27000000006560640000000000006000000000000000000
D100201170600532SALEM ALMUTAIRI                         ACTIVE  0000000000000002018-03-192018-03-192022-12-272022-12-27000000011950768000000000006000000000000000000
D100201170200587SALEM ALQAHTANI                         ACTIVE  0000000006596582018-02-272018-02-272022-08-272022-08-27000000007670622000000000006000000000000109900
D100201170100753SALEM ALSUBAIE                          ACTIVE  0000000003029602018-02-272018-02-272022-07-272022-07-27000000008927740000000000006000000000000150700
D100201151100428SALMAN ALASMARI                         ACTIVE  0000000000000002018-03-192018-03-192019-05-252019-05-25000000004855986000000000006000000000000000000
D100201160300454SALMAN ALKUBRA                          ACTIVE  0000000000000002018-03-192018-03-192021-10-012021-10-01000000004641061000000000006000000000000000000
D100201161100692SALMAN ALQARNI                          ACTIVE  0000000008218072018-02-272018-02-272022-05-272022-05-27000000007992352000000000006000000000000117400
D100201170700409MOHAMMED HADADI                         ACTIVE  0000000000000002018-03-192018-03-192021-01-272021-01-27000000007010587000000000006000000000000000000
D100203180100149MOHAMMED HAZAZI                         ACTIVE  0000000000000002018-03-192018-03-192023-07-272023-07-27000000013354644000000000006000000000000000000
D100201150500670MOHAMMED HURAYYIS                       ACTIVE  0000000002419432018-02-252018-02-252019-10-252019-10-25000000005940145000000000006000000000000241900
D100201170300439MOHAMMED KHADER                         ACTIVE  0000000001322082018-02-272018-02-272022-09-272022-09-27000000007832980000000000006000000000000130600
D100201160500207MOHAMMED MAKRASHI                       ACTIVE  0000000000000002018-03-192018-03-192021-11-272021-11-27000000015052161000000000006000000000000000000
D100201180200227MOHAMMED MOHAMMED                       ACTIVE  0000000000000002018-03-192018-03-192023-09-012023-09-01000000010404450000000000006000000000000000000
D100201140200357MOHAMMED RADHI ALMUATHIN                ACTIVE  0000000001946602018-03-052018-03-052019-09-052019-09-05000000004177700000000000006000000000000194600
D100201170400893MOHAMMED SAYEGH                         ACTIVE  0000000000000002018-03-192018-03-192022-10-272022-10-27000000012200850000000000006000000000000000000
D100201150400469MOHMMED ALONIZI                         ACTIVE  0000000001873062018-03-012018-03-012020-11-012020-11-01000000007364020000000000006000000000000187300
D100201170100434MOHSEN SALAMI                           ACTIVE  0000000000692802018-02-252018-02-252022-07-252022-07-25000000006852270000000000006000000000000069200
D100201160500042MOHTESHAM KARIM                         ACTIVE  0000000000000002018-03-192018-03-192020-12-052020-12-05000000007754345000000000006000000000000000000
D100201170200293MONA ALDANDANI                          ACTIVE  0000000008439782018-03-012018-03-012021-09-012021-09-01000000042752274000000000006000000000000843900
D100201170400584MONA ALMOHAIMEED                        ACTIVE  0000000000000002018-03-192018-03-192022-11-012022-11-01000000010724966000000000006000000000000000000
D100201171000393MONIR ALOTAIBI                          ACTIVE  0000000000000002018-03-192018-03-192023-04-272023-04-27000000004648648000000000006000000000000000000
D100201170300438MOSHAL ALKREDEES                        ACTIVE  0000000002823882018-03-052018-03-052022-10-052022-10-05000000008580879000000000006000000000000141100
D100201151200184MOUSA ALRIBI                            ACTIVE  0000000020655562018-02-272018-02-272021-05-272021-05-27000000007517180000000000006000000000000135400
D100201151100147MOUSA SAHHARI                           ACTIVE  0000000000000002018-03-192018-03-192021-05-012021-05-01000000003626243000000000006000000000000000000
D100201150700204MOUSA THAAFI                            ACTIVE  0000000002489302018-02-272018-02-272020-12-272020-12-27000000004795050000000000006000000000000123700
D100201170100347MOUSTAFA HASSAN                         ACTIVE  0000000002573082018-03-062018-03-062022-07-012022-07-01000000004781043000000000006000000000000257300
D100201150500079MSFER BINJRAID                          ACTIVE  0000000004418212018-02-252018-02-252020-10-252020-10-25000000009468307000000000006000000000000244700
D100201151100252RAJA ALSAHLI                            ACTIVE  0000000000000002018-03-192018-03-192021-04-272021-04-27000000007812224000000000006000000000000000000
D100201161200969RAJEH KARAM                             ACTIVE  0000000000000002018-03-192018-03-192022-07-012022-07-01000000009095837000000000006000000000000000000
D100201141200253RAKAN ALMARI                            ACTIVE  0000000000000002018-03-192018-03-192020-06-272020-06-27000000005039344000000000006000000000000000000
D100201150600731RAMADAN QAHL                            ACTIVE  0000000000000002018-03-192018-03-192020-12-272020-12-27000000006527620000000000006000000000000000000
D100201170600846RANYEH NASSAR                           ACTIVE  0000000000000002018-03-192018-03-192019-12-252019-12-25000000003063319000000000006000000000000000000
D100201160900286RASHAD DAFA ALLAH                       ACTIVE  0000000000201142018-03-012018-03-012019-04-012019-04-01000000002976651000000000006000000000000020100
D100201171100863RASHED ALRASHED                         ACTIVE  0000000000000002018-03-192018-03-192023-05-272023-05-27000000011072196000000000006000000000000000000
D100201161200227RASHED ALSAKHABIRAH                     ACTIVE  0000000001520052018-02-272018-02-272021-05-272021-05-27000000006943170000000000006000000000000152000
D100201160400074MOHAMMED ALQAHTANI                      ACTIVE  0000000013928242018-02-272018-02-272021-09-272021-09-27000000009814635000000000006000000000000174100
D100201161100423MOHAMMED ALRASHEED                      ACTIVE  0000000009019592018-02-272018-02-272022-05-272022-05-27000000009219064000000000006000000000000144200
D100201161200578MOHAMMED ALSHAHRANI                     ACTIVE  0000000000000002018-03-192018-03-192019-06-272019-06-27000000002192640000000000006000000000000000000
D100201140200350MOHAMMED ALSHAMMARI                     ACTIVE  0000000000000002018-03-192018-03-192019-08-272019-08-27000000004070440000000000006000000000000000000
D100201160700375MOHAMMED ALSHAMMARI                     ACTIVE  0000000000000002018-03-192018-03-192022-01-272022-01-27000000008133887000000000006000000000000000000
D100201140500105MOHAMMED ALSHAREEDAH                    ACTIVE  0000000000000002018-03-192018-03-192019-12-012019-12-01000000002136079000000000006000000000000000000
D100201140500109MOHAMMED ALSHEHRI                       ACTIVE  0000000000000002018-03-192018-03-192019-09-252019-09-25000000004531661000000000006000000000000000000
D100201160200040MOHAMMED ALSHEHRI                       ACTIVE  0000000000000002018-03-192018-03-192021-07-272021-07-27000000005964410000000000006000000000000000000
D100201170101131MOHAMMED ALSHEHRI                       ACTIVE  0000000001400262018-02-252018-02-252022-07-252022-07-25000000004140661000000000006000000000000070000
D100201150900036MOHAMMED ALSHENAIFI                     ACTIVE  0000000002437272018-02-252018-02-252021-02-252021-02-25000000010372537000000000006000000000000243700
D100201171000207MOHAMMED ALSUBAIE                       ACTIVE  0000000003475162018-02-252018-02-252023-03-252023-03-25000000012574206000000000006000000000000173700
D100201170100178MOHAMMED ALSWAILEM                      ACTIVE  0000000000000002018-03-192018-03-192022-07-272022-07-27000000007659023000000000006000000000000000000
D100201171200843MOHAMMED ALTUWAYM                       ACTIVE  0000000000000002018-03-192018-03-192023-06-272023-06-27000000020556150000000000006000000000000000000
D100201170200826MOHAMMED ALZAHRANI                      ACTIVE  0000000000000002018-03-192018-03-192022-08-252022-08-25000000012139848000000000006000000000000000000
D100201171200394MOHAMMED ASSAF                          ACTIVE  0000000000000002018-02-252018-02-252023-06-252023-06-25000000014098812000000000006000000000000000000
D100201160600117MOHAMMED BASAIF                         ACTIVE  0000000006633252018-03-012018-03-012021-12-012021-12-01000000006812260000000000006000000000000132600
D100201170400738MOHAMMED BIN KORIN                      ACTIVE  0000000000000002018-03-192018-03-192022-10-272022-10-27000000009807500000000000006000000000000000000
D100201151100126MOHAMMED BIN MASNAD                     ACTIVE  0000000000000002018-03-192018-03-192021-05-252021-05-25000000005146476000000000006000000000000000000
D100201151200293MOHAMMED BIN MUHAYZI                    ACTIVE  0000000002672762018-03-052018-03-052021-07-052021-07-05000000005785968000000000006000000000000133600
D100201170600775MOHAMMED BINJERAIS                      ACTIVE  0000000000000002018-03-192018-03-192023-01-012023-01-01000000013107539000000000006000000000000000000
D100201160700150MOHAMMED BINOUN                         ACTIVE  0000000006877972018-02-252018-02-252018-12-252018-12-25000000005112093000000000006000000000000343800
D100201160600577KHALID ALMUTAIRI                        ACTIVE  0000000000000002018-03-192018-03-192021-12-272021-12-27000000005413360000000000006000000000000000000
D100201161101013KHALID ALOTAIBI                         ACTIVE  0000000000000002018-03-192018-03-192022-05-272022-05-27000000008594265000000000006000000000000000000
D100201170900057KHALID ALOTAIBI                         ACTIVE  0000000000000002018-03-192018-03-192023-03-272023-03-27000000010578150000000000006000000000000000000
D100201160200245KHALID ALQAHTANI                        ACTIVE  0000000000000002018-03-192018-03-192021-09-012021-09-01000000005685484000000000006000000000000000000
D100201170500580KHALID ALQAHTANI                        ACTIVE  0000000000000002018-03-192018-03-192022-11-272022-11-27000000012021381000000000006000000000000000000
D100201170600358KHALID ALSIRAN                          ACTIVE  0000000000000002018-03-192018-03-192022-12-272022-12-27000000014039408000000000006000000000000000000
D100201170501047KHALID ALSUBAIE                         ACTIVE  0000000015684402018-02-272018-02-272022-11-272022-11-27000000014300995000000000006000000000000192300
D100201170500138KHALID ALSWAIRKY                        ACTIVE  0000000000000002018-03-192018-03-192019-10-282019-10-28000000005700486000000000006000000000000000000
D100201151200590KHALID BIN NAMSHAN                      ACTIVE  0000000000000002018-03-192018-03-192019-06-272019-06-27000000004125600000000000006000000000000000000
D100201170100859KHALID BIN SAWYAN                       ACTIVE  0000000000000002018-03-192018-03-192022-07-272022-07-27000000011015147000000000006000000000000000000
D100201161100926KHALID KULAIB                           ACTIVE  0000000000000002018-03-192018-03-192018-10-012018-10-01000000001728210000000000006000000000000000000
D100201161201070KHALID MOHAMMED                         ACTIVE  0000000003492502018-02-252018-02-252022-06-252022-06-25000000013557415000000000006000000000000217000
D100201150300206KHAMIS JAUADHAM                         ACTIVE  0000000002018842018-02-272018-02-272020-09-272020-09-27000000005248984000000000006000000000000201800
D100201161200919KHUDRAN ALMALKI                         ACTIVE  0000000000931032018-02-252018-02-252022-05-252022-05-25000000005582738000000000006000000000000093100
D100201170800495KHULUD ALDAWSARI                        ACTIVE  0000000000000002018-03-192018-03-192023-02-272023-02-27000000015594768000000000006000000000000000000
D100201170800042LAILA ALOTAIBI                          ACTIVE  0000000000000002018-03-192018-03-192023-01-272023-01-27000000006334225000000000006000000000000000000
D100201170900477LAMYA ALGASEM                           ACTIVE  0000000000000002018-03-192018-03-192020-03-272020-03-27000000003733557000000000006000000000000000000
D100201170700003LARRY PUNO                              ACTIVE  0000000000752532018-02-202018-02-202023-01-202023-01-20000000004926170000000000006000000000000075200
D100203170600077LEILA MOHAMED                           ACTIVE  0000000000000002018-03-192018-03-192023-01-012023-01-01000000009552577000000000006000000000000000000
D100201160100339IBRAHIM ALSHAMMARI                      ACTIVE  0000000000950312018-02-272018-02-272019-07-272019-07-27000000002025372000000000006000000000000095000
D100201171200070IBRAHIM ALTANOBI                        ACTIVE  0000000000000002018-03-192018-03-192023-06-012023-06-01000000010690156000000000006000000000000000000
D100201170200153IBRAHIM ALTAWEEL                        ACTIVE  0000000000000002018-03-192018-03-192022-08-272022-08-27000000004917468000000000006000000000000000000
D100201170100668IBRAHIM BASURAIDAH                      ACTIVE  0000000000000002018-03-192018-03-192022-08-012022-08-01000000009011565000000000006000000000000000000
D100201160600145IBRAHIM ELBAYOUMY                       ACTIVE  0000000002928242018-03-012018-03-012022-01-012022-01-01000000007711170000000000006000000000000147600
D100201171000694IBRAHIM ELSHAWAFE                       ACTIVE  0000000000000002018-03-192018-03-192019-05-012019-05-01000000003572415000000000006000000000000000000
D100203170500288IBRAHIM OTHMAN                          ACTIVE  0000000000000002018-03-192018-03-192019-12-012019-12-01000000002541805000000000006000000000000000000
D100201161200259ISLAM AHMED                             ACTIVE  0000000000000002018-03-192018-03-192019-05-282019-05-28000000002980671000000000006000000000000000000
D100201170400341ISMAIL ALANAZI                          ACTIVE  0000000000000002018-03-192018-03-192022-11-012022-11-01000000009850270000000000006000000000000000000
D100201160300243ISMAIL OKASH                            ACTIVE  0000000000000002018-03-192018-03-192020-10-012020-10-01000000004747615000000000006000000000000000000
D100201140200141JABER ALMALKI                           ACTIVE  0000000082184402018-01-032018-01-032018-07-032018-07-03000000008218440000000000006000000000001674500
D100201170200337JABER MASRAHI                           ACTIVE  0000000000000002018-03-192018-03-192022-07-252022-07-25000000006301555000000000006000000000000000000
D100201150500093JAMAL ALDEEN OTHMAN                     ACTIVE  0000000000000002018-03-192018-03-192020-11-012020-11-01000000009440197000000000006000000000000000000
D100201171100873JAMAN ALKAHTANI                         ACTIVE  0000000000000002018-03-192018-03-192023-05-272023-05-27000000010878810000000000006000000000000000000
D100201160500590JAMEEL AL HAJJ                          ACTIVE  0000000000000002018-03-192018-03-192021-12-102021-12-10000000008496056000000000006000000000000000000
D100201160500300JARALLAH ALJARALLAH                     ACTIVE  0000000000000002018-03-192018-03-192021-10-252021-10-25000000010072116000000000006000000000000000000
D100201160200475JAWAHER EL SHAHRANI                     ACTIVE  0000000000000002018-03-192018-03-192021-08-312021-08-31000000005522988000000000006000000000000000000
D100201180300356SHAAF ALSEHALI                          ACTIVE  0000000004102352018-03-192018-03-192018-04-192018-04-19000000025000000000000000062400000000000062400
D100201180200542WASSIM ALKAMAH                          ACTIVE  0000000000060002018-03-192018-03-192018-05-192018-05-19000000025000000000000000006000000000000006000
D100201180200525FAYZ ALENZI                             ACTIVE  0000000005618552018-03-192018-03-192018-04-192018-04-19000000025000000000000000035100000000000035100
D100201180300130MOHAMMED JAMUS                          ACTIVE  0000000053754752018-03-192018-03-192018-04-192018-04-19000000025000000000000000119500000000000119500
D100201180300352ZAKI HAMDI                              ACTIVE  0000000106758752018-03-192018-03-192018-04-192018-04-19000000025000000000000000117500000000000117500
D100203180300018MUHAMMAD AHMED                          ACTIVE  0000000021649952018-03-192018-03-192018-04-192018-04-19000000025000000000000000061900000000000061900
D100203180300162SALIMA AL MULLA                         ACTIVE  0000000032480702018-03-192018-03-192018-04-192018-04-19000000025000000000000000104400000000000104400
D100203180300018MUHAMMAD AHMED                          ACTIVE  0000000000060002018-03-192018-03-192018-05-192018-05-19000000025000000000000000006000000000000006000
D100201180300352ZAKI HAMDI                              ACTIVE  0000000000060002018-03-192018-03-192018-05-192018-05-19000000025000000000000000006000000000000006000
D100201180300404AHMED ALENEZI                           ACTIVE  0000000000060002018-03-192018-03-192018-05-192018-05-19000000025000000000000000006000000000000006000
D100201180300427MOHANAD ALBERRIET                       ACTIVE  0000000031197602018-03-192018-03-192018-04-192018-04-19000000025000000000000000091200000000000091200
D100201180300304MOHAMMED ALZAHRANI                      ACTIVE  0000000000060002018-03-192018-03-192018-05-192018-05-19000000025000000000000000006000000000000006000
D100201180300483MOHAMMED ABSA                           ACTIVE  0000000016157402018-03-192018-03-192018-04-192018-04-19000000025000000000000000118800000000000118800
D100201180300130MOHAMMED JAMUS                          ACTIVE  0000000000060002018-03-192018-03-192018-05-192018-05-19000000025000000000000000006000000000000006000
D100201180300499HADI HASSAN                             ACTIVE  0000000003585752018-03-192018-03-192018-04-192018-04-19000000025000000000000000054500000000000054500
D100201180300499HADI HASSAN                             ACTIVE  0000000000060002018-03-192018-03-192018-05-192018-05-19000000025000000000000000006000000000000006000
D100201170200756MAGED GAZAR                             ACTIVE  0000000000000002018-03-202018-03-202018-08-272018-08-27000000000000000000000000006000000000000000000
D100201161200032MAHA DARIHEM                            ACTIVE  0000000000000002018-03-202018-03-202022-05-272022-05-27000000007499290000000000006000000000000000000
D100201171200738MAHA IBRAHIM                            ACTIVE  0000000000000002018-03-202018-03-202023-07-012023-07-01000000008287374000000000006000000000000000000
D100201161101087MAHDI ALSUBAIE                          ACTIVE  0000000004624542018-02-272018-02-272022-06-272022-06-27000000015658896000000000006000000000000231200
D100201161200957MAHMOUD ABDELATIF                       ACTIVE  0000000000000002018-03-202018-03-202019-07-012019-07-01000000001584157000000000006000000000000000000
D100201170400822MAHMOUD ASKER                           ACTIVE  0000000000000002018-03-202018-03-202020-11-012020-11-01000000007621656000000000006000000000000000000
D100201170600013MAHMOUD ELSAYED                         ACTIVE  0000000000000002018-03-202018-03-202022-12-012022-12-01000000008995882000000000006000000000000000000
D100201170500152MAHMOUD IBRAHIM                         ACTIVE  0000000001238562018-02-282018-02-282022-10-282022-10-28000000008311671000000000006000000000000123800
D100201160801212MUBARAK ALDAWSARI                       ACTIVE  0000000000000002018-03-192018-03-192019-02-272019-02-27000000002348618000000000006000000000000000000
D100201150500424MUBARAK ALDOSSARI                       ACTIVE  0000000003834172018-02-272018-02-272020-11-272020-11-27000000014731676000000000006000000000000383400
D100201170200038MUBARAK QAHTANI                         ACTIVE  0000000010055462018-02-272018-02-272022-07-272022-07-27000000011057323000000000006000000000000167500
D100201151100282MUHAMMAD BILAL AHMAD                    ACTIVE  0000000000000002018-03-192018-03-192019-05-282019-05-28000000004445265000000000006000000000000000000
D100201180100056MUHAMMAD KHAN                           ACTIVE  0000000000000002018-03-192018-03-192023-07-012023-07-01000000015941428000000000006000000000000000000
